{"abi":[{"type":"constructor","inputs":[{"name":"_requiredDepositAmount","type":"uint256","internalType":"uint256"}],"stateMutability":"nonpayable"},{"type":"receive","stateMutability":"payable"},{"type":"function","name":"agentDepositors","inputs":[{"name":"","type":"bytes32","internalType":"bytes32"},{"name":"","type":"uint256","internalType":"uint256"}],"outputs":[{"name":"","type":"address","internalType":"address"}],"stateMutability":"view"},{"type":"function","name":"depositFee","inputs":[{"name":"agentId","type":"string","internalType":"string"}],"outputs":[],"stateMutability":"payable"},{"type":"function","name":"deposits","inputs":[{"name":"","type":"address","internalType":"address"}],"outputs":[{"name":"","type":"uint256","internalType":"uint256"}],"stateMutability":"view"},{"type":"function","name":"getAgentDepositors","inputs":[{"name":"agentId","type":"string","internalType":"string"}],"outputs":[{"name":"","type":"address[]","internalType":"address[]"}],"stateMutability":"view"},{"type":"function","name":"getContractBalance","inputs":[],"outputs":[{"name":"","type":"uint256","internalType":"uint256"}],"stateMutability":"view"},{"type":"function","name":"getUserDeposit","inputs":[{"name":"user","type":"address","internalType":"address"}],"outputs":[{"name":"","type":"uint256","internalType":"uint256"}],"stateMutability":"view"},{"type":"function","name":"owner","inputs":[],"outputs":[{"name":"","type":"address","internalType":"address"}],"stateMutability":"view"},{"type":"function","name":"requiredDepositAmount","inputs":[],"outputs":[{"name":"","type":"uint256","internalType":"uint256"}],"stateMutability":"view"},{"type":"function","name":"reward","inputs":[{"name":"agentId","type":"string","internalType":"string"},{"name":"score","type":"int256","internalType":"int256"},{"name":"creator","type":"address","internalType":"address"}],"outputs":[],"stateMutability":"nonpayable"},{"type":"function","name":"stakeInAgent","inputs":[{"name":"agentId","type":"string","internalType":"string"}],"outputs":[],"stateMutability":"payable"},{"type":"function","name":"withdraw","inputs":[{"name":"amount","type":"uint256","internalType":"uint256"}],"outputs":[],"stateMutability":"nonpayable"}],"bytecode":{"object":"0x6080604052348015600e575f5ffd5b5060405161181e38038061181e8339818101604052810190602e919060ab565b805f819055503360015f6101000a81548173ffffffffffffffffffffffffffffffffffffffff021916908373ffffffffffffffffffffffffffffffffffffffff1602179055505060d1565b5f5ffd5b5f819050919050565b608d81607d565b81146096575f5ffd5b50565b5f8151905060a5816086565b92915050565b5f6020828403121560bd5760bc6079565b5b5f60c8848285016099565b91505092915050565b611740806100de5f395ff3fe60806040526004361061009f575f3560e01c80638da5cb5b116100635780638da5cb5b146101dc578063955f899d146102065780639e02924d14610222578063c084b10b1461023e578063ed14929e1461027a578063fc7e286d146102b6576100f8565b80630fd808c8146100fc57806311ed85e2146101385780631f84575b146101625780632e1a7d4d1461018a5780636f9fb98a146101b2576100f8565b366100f8573460025f3373ffffffffffffffffffffffffffffffffffffffff1673ffffffffffffffffffffffffffffffffffffffff1681526020019081526020015f205f8282546100f09190610cec565b925050819055005b5f5ffd5b348015610107575f5ffd5b50610122600480360381019061011d9190610d8d565b6102f2565b60405161012f9190610e0a565b60405180910390f35b348015610143575f5ffd5b5061014c61033a565b6040516101599190610e32565b60405180910390f35b34801561016d575f5ffd5b5061018860048036038101906101839190610fe4565b61033f565b005b348015610195575f5ffd5b506101b060048036038101906101ab9190611050565b610764565b005b3480156101bd575f5ffd5b506101c66108c0565b6040516101d39190610e32565b60405180910390f35b3480156101e7575f5ffd5b506101f06108c7565b6040516101fd9190610e0a565b60405180910390f35b610220600480360381019061021b919061107b565b6108ec565b005b61023c6004803603810190610237919061107b565b610a21565b005b348015610249575f5ffd5b50610264600480360381019061025f91906110c2565b610b99565b6040516102719190610e32565b60405180910390f35b348015610285575f5ffd5b506102a0600480360381019061029b919061107b565b610bdf565b6040516102ad91906111a4565b60405180910390f35b3480156102c1575f5ffd5b506102dc60048036038101906102d791906110c2565b610ca1565b6040516102e99190610e32565b60405180910390f35b6003602052815f5260405f20818154811061030b575f80fd5b905f5260205f20015f915091509054906101000a900473ffffffffffffffffffffffffffffffffffffffff1681565b5f5481565b5f836040516020016103519190611216565b6040516020818303038152906040528051906020012090505f60035f8381526020019081526020015f208054806020026020016040519081016040528092919081815260200182805480156103f857602002820191905f5260205f20905b815f9054906101000a900473ffffffffffffffffffffffffffffffffffffffff1673ffffffffffffffffffffffffffffffffffffffff16815260200190600101908083116103af575b505050505090505f4790505f8111610445576040517f08c379a000000000000000000000000000000000000000000000000000000000815260040161043c90611286565b60405180910390fd5b5f6064600a8361045591906112a4565b61045f9190611312565b90505f81116104a3576040517f08c379a000000000000000000000000000000000000000000000000000000000815260040161049a9061138c565b60405180910390fd5b5f60036002836104b391906112a4565b6104bd9190611312565b90505f8673ffffffffffffffffffffffffffffffffffffffff16826040516104e4906113d7565b5f6040518083038185875af1925050503d805f811461051e576040519150601f19603f3d011682016040523d82523d5f602084013e610523565b606091505b5050905080610567576040517f08c379a000000000000000000000000000000000000000000000000000000000815260040161055e90611435565b60405180910390fd5b5f82846105749190611453565b90505f5f90505b8651811015610757578873ffffffffffffffffffffffffffffffffffffffff168782815181106105ae576105ad611486565b5b602002602001015173ffffffffffffffffffffffffffffffffffffffff16031561074a575f60025f8984815181106105e9576105e8611486565b5b602002602001015173ffffffffffffffffffffffffffffffffffffffff1673ffffffffffffffffffffffffffffffffffffffff1681526020019081526020015f205490505f603260018d61063d91906114b3565b61064791906114f4565b90505f88606461065791906112a4565b85838561066491906112a4565b61066e91906112a4565b6106789190611312565b90505f8111156107465789848151811061069557610694611486565b5b602002602001015173ffffffffffffffffffffffffffffffffffffffff16816040516106c0906113d7565b5f6040518083038185875af1925050503d805f81146106fa576040519150601f19603f3d011682016040523d82523d5f602084013e6106ff565b606091505b50508096505085610745576040517f08c379a000000000000000000000000000000000000000000000000000000000815260040161073c906115b4565b60405180910390fd5b5b5050505b808060010191505061057b565b5050505050505050505050565b60015f9054906101000a900473ffffffffffffffffffffffffffffffffffffffff1673ffffffffffffffffffffffffffffffffffffffff163373ffffffffffffffffffffffffffffffffffffffff16146107f3576040517f08c379a00000000000000000000000000000000000000000000000000000000081526004016107ea9061161c565b60405180910390fd5b5f60015f9054906101000a900473ffffffffffffffffffffffffffffffffffffffff1673ffffffffffffffffffffffffffffffffffffffff1682604051610839906113d7565b5f6040518083038185875af1925050503d805f8114610873576040519150601f19603f3d011682016040523d82523d5f602084013e610878565b606091505b50509050806108bc576040517f08c379a00000000000000000000000000000000000000000000000000000000081526004016108b390611684565b60405180910390fd5b5050565b5f47905090565b60015f9054906101000a900473ffffffffffffffffffffffffffffffffffffffff1681565b5f816040516020016108fe9190611216565b6040516020818303038152906040528051906020012090503460025f3373ffffffffffffffffffffffffffffffffffffffff1673ffffffffffffffffffffffffffffffffffffffff1681526020019081526020015f205f8282546109629190610cec565b925050819055503460025f3373ffffffffffffffffffffffffffffffffffffffff1673ffffffffffffffffffffffffffffffffffffffff1681526020019081526020015f205403610a1d5760035f8281526020019081526020015f2033908060018154018082558091505060019003905f5260205f20015f9091909190916101000a81548173ffffffffffffffffffffffffffffffffffffffff021916908373ffffffffffffffffffffffffffffffffffffffff1602179055505b5050565b5f543414610a64576040517f08c379a0000000000000000000000000000000000000000000000000000000008152600401610a5b906116ec565b60405180910390fd5b5f81604051602001610a769190611216565b6040516020818303038152906040528051906020012090503460025f3373ffffffffffffffffffffffffffffffffffffffff1673ffffffffffffffffffffffffffffffffffffffff1681526020019081526020015f205f828254610ada9190610cec565b925050819055503460025f3373ffffffffffffffffffffffffffffffffffffffff1673ffffffffffffffffffffffffffffffffffffffff1681526020019081526020015f205403610b955760035f8281526020019081526020015f2033908060018154018082558091505060019003905f5260205f20015f9091909190916101000a81548173ffffffffffffffffffffffffffffffffffffffff021916908373ffffffffffffffffffffffffffffffffffffffff1602179055505b5050565b5f60025f8373ffffffffffffffffffffffffffffffffffffffff1673ffffffffffffffffffffffffffffffffffffffff1681526020019081526020015f20549050919050565b606060035f83604051602001610bf59190611216565b6040516020818303038152906040528051906020012081526020019081526020015f20805480602002602001604051908101604052809291908181526020018280548015610c9557602002820191905f5260205f20905b815f9054906101000a900473ffffffffffffffffffffffffffffffffffffffff1673ffffffffffffffffffffffffffffffffffffffff1681526020019060010190808311610c4c575b50505050509050919050565b6002602052805f5260405f205f915090505481565b5f819050919050565b7f4e487b71000000000000000000000000000000000000000000000000000000005f52601160045260245ffd5b5f610cf682610cb6565b9150610d0183610cb6565b9250828201905080821115610d1957610d18610cbf565b5b92915050565b5f604051905090565b5f5ffd5b5f5ffd5b5f819050919050565b610d4281610d30565b8114610d4c575f5ffd5b50565b5f81359050610d5d81610d39565b92915050565b610d6c81610cb6565b8114610d76575f5ffd5b50565b5f81359050610d8781610d63565b92915050565b5f5f60408385031215610da357610da2610d28565b5b5f610db085828601610d4f565b9250506020610dc185828601610d79565b9150509250929050565b5f73ffffffffffffffffffffffffffffffffffffffff82169050919050565b5f610df482610dcb565b9050919050565b610e0481610dea565b82525050565b5f602082019050610e1d5f830184610dfb565b92915050565b610e2c81610cb6565b82525050565b5f602082019050610e455f830184610e23565b92915050565b5f5ffd5b5f5ffd5b5f601f19601f8301169050919050565b7f4e487b71000000000000000000000000000000000000000000000000000000005f52604160045260245ffd5b610e9982610e53565b810181811067ffffffffffffffff82111715610eb857610eb7610e63565b5b80604052505050565b5f610eca610d1f565b9050610ed68282610e90565b919050565b5f67ffffffffffffffff821115610ef557610ef4610e63565b5b610efe82610e53565b9050602081019050919050565b828183375f83830152505050565b5f610f2b610f2684610edb565b610ec1565b905082815260208101848484011115610f4757610f46610e4f565b5b610f52848285610f0b565b509392505050565b5f82601f830112610f6e57610f6d610e4b565b5b8135610f7e848260208601610f19565b91505092915050565b5f819050919050565b610f9981610f87565b8114610fa3575f5ffd5b50565b5f81359050610fb481610f90565b92915050565b610fc381610dea565b8114610fcd575f5ffd5b50565b5f81359050610fde81610fba565b92915050565b5f5f5f60608486031215610ffb57610ffa610d28565b5b5f84013567ffffffffffffffff81111561101857611017610d2c565b5b61102486828701610f5a565b935050602061103586828701610fa6565b925050604061104686828701610fd0565b9150509250925092565b5f6020828403121561106557611064610d28565b5b5f61107284828501610d79565b91505092915050565b5f602082840312156110905761108f610d28565b5b5f82013567ffffffffffffffff8111156110ad576110ac610d2c565b5b6110b984828501610f5a565b91505092915050565b5f602082840312156110d7576110d6610d28565b5b5f6110e484828501610fd0565b91505092915050565b5f81519050919050565b5f82825260208201905092915050565b5f819050602082019050919050565b61111f81610dea565b82525050565b5f6111308383611116565b60208301905092915050565b5f602082019050919050565b5f611152826110ed565b61115c81856110f7565b935061116783611107565b805f5b8381101561119757815161117e8882611125565b97506111898361113c565b92505060018101905061116a565b5085935050505092915050565b5f6020820190508181035f8301526111bc8184611148565b905092915050565b5f81519050919050565b5f81905092915050565b8281835e5f83830152505050565b5f6111f0826111c4565b6111fa81856111ce565b935061120a8185602086016111d8565b80840191505092915050565b5f61122182846111e6565b915081905092915050565b5f82825260208201905092915050565b7f4e6f2066756e647320617661696c61626c6520746f20646973747269627574655f82015250565b5f61127060208361122c565b915061127b8261123c565b602082019050919050565b5f6020820190508181035f83015261129d81611264565b9050919050565b5f6112ae82610cb6565b91506112b983610cb6565b92508282026112c781610cb6565b915082820484148315176112de576112dd610cbf565b5b5092915050565b7f4e487b71000000000000000000000000000000000000000000000000000000005f52601260045260245ffd5b5f61131c82610cb6565b915061132783610cb6565b925082611337576113366112e5565b5b828204905092915050565b7f496e73756666696369656e742066756e647320666f72207265776172647300005f82015250565b5f611376601e8361122c565b915061138182611342565b602082019050919050565b5f6020820190508181035f8301526113a38161136a565b9050919050565b5f81905092915050565b50565b5f6113c25f836113aa565b91506113cd826113b4565b5f82019050919050565b5f6113e1826113b7565b9150819050919050565b7f43726561746f7220726577617264206661696c656400000000000000000000005f82015250565b5f61141f60158361122c565b915061142a826113eb565b602082019050919050565b5f6020820190508181035f83015261144c81611413565b9050919050565b5f61145d82610cb6565b915061146883610cb6565b92508282039050818111156114805761147f610cbf565b5b92915050565b7f4e487b71000000000000000000000000000000000000000000000000000000005f52603260045260245ffd5b5f6114bd82610f87565b91506114c883610f87565b92508282019050828112155f8312168382125f8412151617156114ee576114ed610cbf565b5b92915050565b5f6114fe82610f87565b915061150983610f87565b925082820261151781610f87565b91507f800000000000000000000000000000000000000000000000000000000000000084145f8412161561154e5761154d610cbf565b5b828205841483151761156357611562610cbf565b5b5092915050565b7f5374616b657220726577617264206661696c65640000000000000000000000005f82015250565b5f61159e60148361122c565b91506115a98261156a565b602082019050919050565b5f6020820190508181035f8301526115cb81611592565b9050919050565b7f4f6e6c7920746865206f776e65722063616e20776974686472617700000000005f82015250565b5f611606601b8361122c565b9150611611826115d2565b602082019050919050565b5f6020820190508181035f830152611633816115fa565b9050919050565b7f4f776e6572207769746864726177206661696c656400000000000000000000005f82015250565b5f61166e60158361122c565b91506116798261163a565b602082019050919050565b5f6020820190508181035f83015261169b81611662565b9050919050565b7f496e636f7272656374206465706f73697420616d6f756e7400000000000000005f82015250565b5f6116d660188361122c565b91506116e1826116a2565b602082019050919050565b5f6020820190508181035f830152611703816116ca565b905091905056fea2646970667358221220ed1f27f7e66bcf0a33b3a465555cea53f5f8babd95bbac1f3fb1e02082e65f2e64736f6c634300081c0033","linkReferences":{}},"methodIdentifiers":{"agentDepositors(bytes32,uint256)":"0fd808c8","depositFee(string)":"9e02924d","deposits(address)":"fc7e286d","getAgentDepositors(string)":"ed14929e","getContractBalance()":"6f9fb98a","getUserDeposit(address)":"c084b10b","owner()":"8da5cb5b","requiredDepositAmount()":"11ed85e2","reward(string,int256,address)":"1f84575b","stakeInAgent(string)":"955f899d","withdraw(uint256)":"2e1a7d4d"},"id":0}